{
  "_format": "hh-sol-artifact-1",
  "contractName": "DAO",
  "sourceName": "contracts/DAO.sol",
  "abi": [
    {
      "inputs": [
        {
          "internalType": "uint256",
          "name": "_persentageVote",
          "type": "uint256"
        },
        {
          "internalType": "uint256",
          "name": "_contirbiutionTime",
          "type": "uint256"
        }
      ],
      "stateMutability": "nonpayable",
      "type": "constructor"
    },
    {
      "inputs": [],
      "name": "admin",
      "outputs": [
        {
          "internalType": "address",
          "name": "",
          "type": "address"
        }
      ],
      "stateMutability": "view",
      "type": "function"
    },
    {
      "inputs": [],
      "name": "avalaibleShares",
      "outputs": [
        {
          "internalType": "uint256",
          "name": "",
          "type": "uint256"
        }
      ],
      "stateMutability": "view",
      "type": "function"
    },
    {
      "inputs": [],
      "name": "contirbiutionTime",
      "outputs": [
        {
          "internalType": "uint256",
          "name": "",
          "type": "uint256"
        }
      ],
      "stateMutability": "view",
      "type": "function"
    },
    {
      "inputs": [],
      "name": "contribute",
      "outputs": [],
      "stateMutability": "payable",
      "type": "function"
    },
    {
      "inputs": [
        {
          "internalType": "string",
          "name": "name",
          "type": "string"
        }
      ],
      "name": "executeProposal",
      "outputs": [],
      "stateMutability": "nonpayable",
      "type": "function"
    },
    {
      "inputs": [
        {
          "internalType": "string",
          "name": "name",
          "type": "string"
        },
        {
          "internalType": "uint256",
          "name": "_share",
          "type": "uint256"
        }
      ],
      "name": "investProject",
      "outputs": [],
      "stateMutability": "nonpayable",
      "type": "function"
    },
    {
      "inputs": [
        {
          "internalType": "address",
          "name": "",
          "type": "address"
        }
      ],
      "name": "investorFunds",
      "outputs": [
        {
          "internalType": "uint256",
          "name": "",
          "type": "uint256"
        }
      ],
      "stateMutability": "view",
      "type": "function"
    },
    {
      "inputs": [
        {
          "internalType": "address",
          "name": "",
          "type": "address"
        }
      ],
      "name": "isInvestor",
      "outputs": [
        {
          "internalType": "bool",
          "name": "",
          "type": "bool"
        }
      ],
      "stateMutability": "view",
      "type": "function"
    },
    {
      "inputs": [],
      "name": "persentageVote",
      "outputs": [
        {
          "internalType": "uint256",
          "name": "",
          "type": "uint256"
        }
      ],
      "stateMutability": "view",
      "type": "function"
    },
    {
      "inputs": [
        {
          "internalType": "string",
          "name": "name",
          "type": "string"
        },
        {
          "internalType": "uint256",
          "name": "_amount",
          "type": "uint256"
        },
        {
          "internalType": "uint256",
          "name": "deadline",
          "type": "uint256"
        },
        {
          "internalType": "address payable",
          "name": "_address",
          "type": "address"
        }
      ],
      "name": "proposeProject",
      "outputs": [],
      "stateMutability": "nonpayable",
      "type": "function"
    },
    {
      "inputs": [],
      "name": "totalShares",
      "outputs": [
        {
          "internalType": "uint256",
          "name": "",
          "type": "uint256"
        }
      ],
      "stateMutability": "view",
      "type": "function"
    },
    {
      "inputs": [
        {
          "internalType": "address",
          "name": "from",
          "type": "address"
        },
        {
          "internalType": "address",
          "name": "to",
          "type": "address"
        },
        {
          "internalType": "uint256",
          "name": "amount",
          "type": "uint256"
        }
      ],
      "name": "transferShares",
      "outputs": [],
      "stateMutability": "nonpayable",
      "type": "function"
    },
    {
      "inputs": [],
      "name": "withdrawAllShares",
      "outputs": [],
      "stateMutability": "nonpayable",
      "type": "function"
    }
  ],
  "bytecode": "0x60806040523480156200001157600080fd5b50604051620021833803806200218383398181016040528101906200003791906200012e565b600082118015620000485750606482115b6200008a576040517f08c379a00000000000000000000000000000000000000000000000000000000081526004016200008190620001d6565b60405180910390fd5b81600b8190555080426200009f919062000227565b600c8190555033600860006101000a81548173ffffffffffffffffffffffffffffffffffffffff021916908373ffffffffffffffffffffffffffffffffffffffff160217905550505062000262565b600080fd5b6000819050919050565b6200010881620000f3565b81146200011457600080fd5b50565b6000815190506200012881620000fd565b92915050565b60008060408385031215620001485762000147620000ee565b5b6000620001588582860162000117565b92505060206200016b8582860162000117565b9150509250929050565b600082825260208201905092915050565b7f70657263656e74616765206e6f74206163636570746564000000000000000000600082015250565b6000620001be60178362000175565b9150620001cb8262000186565b602082019050919050565b60006020820190508181036000830152620001f181620001af565b9050919050565b7f4e487b7100000000000000000000000000000000000000000000000000000000600052601160045260246000fd5b60006200023482620000f3565b91506200024183620000f3565b92508282019050808211156200025c576200025b620001f8565b5b92915050565b611f1180620002726000396000f3fe6080604052600436106100c25760003560e01c8063bfc77beb1161007f578063d7bb99ba11610059578063d7bb99ba14610240578063f034671f1461024a578063f851a44014610287578063feba75f3146102b2576100c2565b8063bfc77beb146101c3578063cbb22958146101ec578063cee2a9cf14610203576100c2565b80632cfe27f0146100c757806338d698bf146100f05780633a98ef3914610119578063498d8d5f14610144578063887818871461016f578063a624d5af14610198575b600080fd5b3480156100d357600080fd5b506100ee60048036038101906100e991906114cd565b6102dd565b005b3480156100fc57600080fd5b50610117600480360381019061011291906115aa565b6105bb565b005b34801561012557600080fd5b5061012e610824565b60405161013b919061163c565b60405180910390f35b34801561015057600080fd5b5061015961082a565b604051610166919061163c565b60405180910390f35b34801561017b57600080fd5b5061019660048036038101906101919190611657565b610830565b005b3480156101a457600080fd5b506101ad610cd7565b6040516101ba919061163c565b60405180910390f35b3480156101cf57600080fd5b506101ea60048036038101906101e591906116f1565b610cdd565b005b3480156101f857600080fd5b50610201611027565b005b34801561020f57600080fd5b5061022a60048036038101906102259190611744565b611151565b604051610237919061178c565b60405180910390f35b610248611171565b005b34801561025657600080fd5b50610271600480360381019061026c9190611744565b6112e4565b60405161027e919061163c565b60405180910390f35b34801561029357600080fd5b5061029c6112fc565b6040516102a991906117b6565b60405180910390f35b3480156102be57600080fd5b506102c7611322565b6040516102d4919061163c565b60405180910390f35b6000816040516020016102f09190611850565b6040516020818303038152906040528051906020012090506007600082815260200190815260200160002060009054906101000a900460ff16610368576040517f08c379a000000000000000000000000000000000000000000000000000000000815260040161035f906118be565b60405180910390fd5b42600260008381526020019081526020016000206004015411156103c1576040517f08c379a00000000000000000000000000000000000000000000000000000000081526004016103b89061192a565b60405180910390fd5b600015156002600083815260200190815260200160002060030160149054906101000a900460ff1615151461042b576040517f08c379a00000000000000000000000000000000000000000000000000000000081526004016104229061192a565b60405180910390fd5b60026000828152602001908152602001600020600501546002600083815260200190815260200160002060010154111561049a576040517f08c379a00000000000000000000000000000000000000000000000000000000081526004016104919061192a565b60405180910390fd5b600a54600260008381526020019081526020016000206005015411156104f5576040517f08c379a00000000000000000000000000000000000000000000000000000000081526004016104ec9061192a565b60405180910390fd5b6002600082815260200190815260200160002060030160009054906101000a900473ffffffffffffffffffffffffffffffffffffffff1673ffffffffffffffffffffffffffffffffffffffff166108fc60026000848152602001908152602001600020600501549081150290604051600060405180830381858888f19350505050158015610587573d6000803e3d6000fd5b5060016002600083815260200190815260200160002060030160146101000a81548160ff0219169083151502179055505050565b6000803373ffffffffffffffffffffffffffffffffffffffff1673ffffffffffffffffffffffffffffffffffffffff16815260200190815260200160002060009054906101000a900460ff16610646576040517f08c379a000000000000000000000000000000000000000000000000000000000815260040161063d90611996565b60405180910390fd5b6000846040516020016106599190611850565b604051602081830303815290604052805190602001209050600015156006600083815260200190815260200160002060009054906101000a900460ff161515146106d8576040517f08c379a00000000000000000000000000000000000000000000000000000000081526004016106cf90611a02565b60405180910390fd5b60006040518060e001604052808381526020018681526020018781526020018473ffffffffffffffffffffffffffffffffffffffff16815260200160001515815260200185426107289190611a51565b8152602001600081525090508060026000848152602001908152602001600020600082015181600001556020820151816001015560408201518160020190816107719190611c91565b5060608201518160030160006101000a81548173ffffffffffffffffffffffffffffffffffffffff021916908373ffffffffffffffffffffffffffffffffffffffff16021790555060808201518160030160146101000a81548160ff02191690831515021790555060a0820151816004015560c0820151816005015590505060016007600084815260200190815260200160002060006101000a81548160ff021916908315150217905550505050505050565b60095481565b600c5481565b6000803373ffffffffffffffffffffffffffffffffffffffff1673ffffffffffffffffffffffffffffffffffffffff16815260200190815260200160002060009054906101000a900460ff166108bb576040517f08c379a00000000000000000000000000000000000000000000000000000000081526004016108b290611996565b60405180910390fd5b8080600160003373ffffffffffffffffffffffffffffffffffffffff1673ffffffffffffffffffffffffffffffffffffffff16815260200190815260200160002054101561093e576040517f08c379a000000000000000000000000000000000000000000000000000000000815260040161093590611daf565b60405180910390fd5b6000836040516020016109519190611850565b6040516020818303038152906040528051906020012090506007600082815260200190815260200160002060009054906101000a900460ff166109c9576040517f08c379a00000000000000000000000000000000000000000000000000000000081526004016109c0906118be565b60405180910390fd5b42600260008381526020019081526020016000206004015411610a21576040517f08c379a0000000000000000000000000000000000000000000000000000000008152600401610a189061192a565b60405180910390fd5b600015156002600083815260200190815260200160002060030160149054906101000a900460ff16151514610a8b576040517f08c379a0000000000000000000000000000000000000000000000000000000008152600401610a829061192a565b60405180910390fd5b6000600260008381526020019081526020016000206040518060e00160405290816000820154815260200160018201548152602001600282018054610acf90611ab4565b80601f0160208091040260200160405190810160405280929190818152602001828054610afb90611ab4565b8015610b485780601f10610b1d57610100808354040283529160200191610b48565b820191906000526020600020905b815481529060010190602001808311610b2b57829003601f168201915b505050505081526020016003820160009054906101000a900473ffffffffffffffffffffffffffffffffffffffff1673ffffffffffffffffffffffffffffffffffffffff1673ffffffffffffffffffffffffffffffffffffffff1681526020016003820160149054906101000a900460ff16151515158152602001600482015481526020016005820154815250509050838160c001818151610bea9190611a51565b9150818152505083600a6000828254610c039190611dcf565b925050819055506001600360008360000151815260200190815260200160002060003373ffffffffffffffffffffffffffffffffffffffff1673ffffffffffffffffffffffffffffffffffffffff16815260200190815260200160002060006101000a81548160ff02191690831515021790555083600460008360000151815260200190815260200160002060003373ffffffffffffffffffffffffffffffffffffffff1673ffffffffffffffffffffffffffffffffffffffff168152602001908152602001600020819055505050505050565b600b5481565b6000803373ffffffffffffffffffffffffffffffffffffffff1673ffffffffffffffffffffffffffffffffffffffff16815260200190815260200160002060009054906101000a900460ff16610d68576040517f08c379a0000000000000000000000000000000000000000000000000000000008152600401610d5f90611996565b60405180910390fd5b8080600160003373ffffffffffffffffffffffffffffffffffffffff1673ffffffffffffffffffffffffffffffffffffffff168152602001908152602001600020541015610deb576040517f08c379a0000000000000000000000000000000000000000000000000000000008152600401610de290611daf565b60405180910390fd5b600c544210610e2f576040517f08c379a0000000000000000000000000000000000000000000000000000000008152600401610e2690611e4f565b60405180910390fd5b6000808473ffffffffffffffffffffffffffffffffffffffff1673ffffffffffffffffffffffffffffffffffffffff16815260200190815260200160002060009054906101000a900460ff16610ed75760016000808573ffffffffffffffffffffffffffffffffffffffff1673ffffffffffffffffffffffffffffffffffffffff16815260200190815260200160002060006101000a81548160ff0219169083151502179055505b81600160008673ffffffffffffffffffffffffffffffffffffffff1673ffffffffffffffffffffffffffffffffffffffff1681526020019081526020016000205403610f755760008060008673ffffffffffffffffffffffffffffffffffffffff1673ffffffffffffffffffffffffffffffffffffffff16815260200190815260200160002060006101000a81548160ff0219169083151502179055505b81600160008673ffffffffffffffffffffffffffffffffffffffff1673ffffffffffffffffffffffffffffffffffffffff1681526020019081526020016000206000828254610fc49190611dcf565b9250508190555081600160008573ffffffffffffffffffffffffffffffffffffffff1673ffffffffffffffffffffffffffffffffffffffff168152602001908152602001600020600082825461101a9190611a51565b9250508190555050505050565b6000600160003373ffffffffffffffffffffffffffffffffffffffff1673ffffffffffffffffffffffffffffffffffffffff16815260200190815260200160002054116110a9576040517f08c379a00000000000000000000000000000000000000000000000000000000081526004016110a090611ebb565b60405180910390fd5b6000600160003373ffffffffffffffffffffffffffffffffffffffff1673ffffffffffffffffffffffffffffffffffffffff16815260200190815260200160002054905060008060003373ffffffffffffffffffffffffffffffffffffffff1673ffffffffffffffffffffffffffffffffffffffff16815260200190815260200160002060006101000a81548160ff02191690831515021790555061114e8133611328565b50565b60006020528060005260406000206000915054906101000a900460ff1681565b600015156000803373ffffffffffffffffffffffffffffffffffffffff1673ffffffffffffffffffffffffffffffffffffffff16815260200190815260200160002060009054906101000a900460ff16151514611203576040517f08c379a00000000000000000000000000000000000000000000000000000000081526004016111fa90611996565b60405180910390fd5b34600160003373ffffffffffffffffffffffffffffffffffffffff1673ffffffffffffffffffffffffffffffffffffffff16815260200190815260200160002060008282546112529190611a51565b92505081905550346009600082825461126b9190611a51565b9250508190555034600a60008282546112849190611a51565b9250508190555060016000803373ffffffffffffffffffffffffffffffffffffffff1673ffffffffffffffffffffffffffffffffffffffff16815260200190815260200160002060006101000a81548160ff021916908315150217905550565b60016020528060005260406000206000915090505481565b600860009054906101000a900473ffffffffffffffffffffffffffffffffffffffff1681565b600a5481565b8073ffffffffffffffffffffffffffffffffffffffff166108fc839081150290604051600060405180830381858888f1935050505015801561136e573d6000803e3d6000fd5b505050565b6000604051905090565b600080fd5b600080fd5b600080fd5b600080fd5b6000601f19601f8301169050919050565b7f4e487b7100000000000000000000000000000000000000000000000000000000600052604160045260246000fd5b6113da82611391565b810181811067ffffffffffffffff821117156113f9576113f86113a2565b5b80604052505050565b600061140c611373565b905061141882826113d1565b919050565b600067ffffffffffffffff821115611438576114376113a2565b5b61144182611391565b9050602081019050919050565b82818337600083830152505050565b600061147061146b8461141d565b611402565b90508281526020810184848401111561148c5761148b61138c565b5b61149784828561144e565b509392505050565b600082601f8301126114b4576114b3611387565b5b81356114c484826020860161145d565b91505092915050565b6000602082840312156114e3576114e261137d565b5b600082013567ffffffffffffffff81111561150157611500611382565b5b61150d8482850161149f565b91505092915050565b6000819050919050565b61152981611516565b811461153457600080fd5b50565b60008135905061154681611520565b92915050565b600073ffffffffffffffffffffffffffffffffffffffff82169050919050565b60006115778261154c565b9050919050565b6115878161156c565b811461159257600080fd5b50565b6000813590506115a48161157e565b92915050565b600080600080608085870312156115c4576115c361137d565b5b600085013567ffffffffffffffff8111156115e2576115e1611382565b5b6115ee8782880161149f565b94505060206115ff87828801611537565b935050604061161087828801611537565b925050606061162187828801611595565b91505092959194509250565b61163681611516565b82525050565b6000602082019050611651600083018461162d565b92915050565b6000806040838503121561166e5761166d61137d565b5b600083013567ffffffffffffffff81111561168c5761168b611382565b5b6116988582860161149f565b92505060206116a985828601611537565b9150509250929050565b60006116be8261154c565b9050919050565b6116ce816116b3565b81146116d957600080fd5b50565b6000813590506116eb816116c5565b92915050565b60008060006060848603121561170a5761170961137d565b5b6000611718868287016116dc565b9350506020611729868287016116dc565b925050604061173a86828701611537565b9150509250925092565b60006020828403121561175a5761175961137d565b5b6000611768848285016116dc565b91505092915050565b60008115159050919050565b61178681611771565b82525050565b60006020820190506117a1600083018461177d565b92915050565b6117b0816116b3565b82525050565b60006020820190506117cb60008301846117a7565b92915050565b600081519050919050565b600082825260208201905092915050565b60005b8381101561180b5780820151818401526020810190506117f0565b60008484015250505050565b6000611822826117d1565b61182c81856117dc565b935061183c8185602086016117ed565b61184581611391565b840191505092915050565b6000602082019050818103600083015261186a8184611817565b905092915050565b7f6e6f2070726f6a6563742069732070726f706f73656400000000000000000000600082015250565b60006118a86016836117dc565b91506118b382611872565b602082019050919050565b600060208201905081810360008301526118d78161189b565b9050919050565b7f74696d6520666f7220696e76657374696e672070617373656400000000000000600082015250565b60006119146019836117dc565b915061191f826118de565b602082019050919050565b6000602082019050818103600083015261194381611907565b9050919050565b7f6e6f74206120696e766573746f72000000000000000000000000000000000000600082015250565b6000611980600e836117dc565b915061198b8261194a565b602082019050919050565b600060208201905081810360008301526119af81611973565b9050919050565b7f70726f6a656374207761732070726f706f736564000000000000000000000000600082015250565b60006119ec6014836117dc565b91506119f7826119b6565b602082019050919050565b60006020820190508181036000830152611a1b816119df565b9050919050565b7f4e487b7100000000000000000000000000000000000000000000000000000000600052601160045260246000fd5b6000611a5c82611516565b9150611a6783611516565b9250828201905080821115611a7f57611a7e611a22565b5b92915050565b7f4e487b7100000000000000000000000000000000000000000000000000000000600052602260045260246000fd5b60006002820490506001821680611acc57607f821691505b602082108103611adf57611ade611a85565b5b50919050565b60008190508160005260206000209050919050565b60006020601f8301049050919050565b600082821b905092915050565b600060088302611b477fffffffffffffffffffffffffffffffffffffffffffffffffffffffffffffffff82611b0a565b611b518683611b0a565b95508019841693508086168417925050509392505050565b6000819050919050565b6000611b8e611b89611b8484611516565b611b69565b611516565b9050919050565b6000819050919050565b611ba883611b73565b611bbc611bb482611b95565b848454611b17565b825550505050565b600090565b611bd1611bc4565b611bdc818484611b9f565b505050565b5b81811015611c0057611bf5600082611bc9565b600181019050611be2565b5050565b601f821115611c4557611c1681611ae5565b611c1f84611afa565b81016020851015611c2e578190505b611c42611c3a85611afa565b830182611be1565b50505b505050565b600082821c905092915050565b6000611c6860001984600802611c4a565b1980831691505092915050565b6000611c818383611c57565b9150826002028217905092915050565b611c9a826117d1565b67ffffffffffffffff811115611cb357611cb26113a2565b5b611cbd8254611ab4565b611cc8828285611c04565b600060209050601f831160018114611cfb5760008415611ce9578287015190505b611cf38582611c75565b865550611d5b565b601f198416611d0986611ae5565b60005b82811015611d3157848901518255600182019150602085019450602081019050611d0c565b86831015611d4e5784890151611d4a601f891682611c57565b8355505b6001600288020188555050505b505050505050565b7f6e6f7420737566666963696e65742066756e6400000000000000000000000000600082015250565b6000611d996013836117dc565b9150611da482611d63565b602082019050919050565b60006020820190508181036000830152611dc881611d8c565b9050919050565b6000611dda82611516565b9150611de583611516565b9250828203905081811115611dfd57611dfc611a22565b5b92915050565b7f7061747274696369706174696f6e2074696d6520706173736564000000000000600082015250565b6000611e39601a836117dc565b9150611e4482611e03565b602082019050919050565b60006020820190508181036000830152611e6881611e2c565b9050919050565b7f696e73756666696369656e742066756e64000000000000000000000000000000600082015250565b6000611ea56011836117dc565b9150611eb082611e6f565b602082019050919050565b60006020820190508181036000830152611ed481611e98565b905091905056fea2646970667358221220c3f23afed9766c855d7d9a0bf1cb42101b401a67ed6a3169b17e2387d70e6f1164736f6c63430008110033",
  "linkReferences": {},
  "deployedLinkReferences": {}
}